{
  "transactions": [
    {
      "hash": "0xeb706393e1c2bc723593686ee27e6297d55c73dd172b31b9572331cd00219ab8",
      "transactionType": "CALL",
      "contractName": "LinkToken",
      "contractAddress": "0x779877a7b0d9e8603169ddbd7836e478b4624789",
      "function": "transferAndCall(address,uint256,bytes)",
      "arguments": [
        "0x9DdfaCa8183c41ad55329BdeeD9F6A8d53168B1B",
        "3000000000000000000",
        "0x3fcbd1ea72b4a8b917685f58004ef0e3a30a28d3bcf25275d8fe921d1b65eb16"
      ],
      "transaction": {
        "from": "0x52982b1af34a7823f17e407db831687298741593",
        "to": "0x779877a7b0d9e8603169ddbd7836e478b4624789",
        "gas": "0x1a8ee",
        "value": "0x0",
        "input": "0x4000aea00000000000000000000000009ddfaca8183c41ad55329bdeed9f6a8d53168b1b00000000000000000000000000000000000000000000000029a2241af62c0000000000000000000000000000000000000000000000000000000000000000006000000000000000000000000000000000000000000000000000000000000000203fcbd1ea72b4a8b917685f58004ef0e3a30a28d3bcf25275d8fe921d1b65eb16",
        "nonce": "0x35",
        "chainId": "0xaa36a7"
      },
      "additionalContracts": [],
      "isFixedGasLimit": false
    }
  ],
  "receipts": [
    {
      "status": "0x1",
      "cumulativeGasUsed": "0xb94621",
      "logs": [
        {
          "address": "0x779877a7b0d9e8603169ddbd7836e478b4624789",
          "topics": [
            "0xddf252ad1be2c89b69c2b068fc378daa952ba7f163c4a11628f55a4df523b3ef",
            "0x00000000000000000000000052982b1af34a7823f17e407db831687298741593",
            "0x0000000000000000000000009ddfaca8183c41ad55329bdeed9f6a8d53168b1b"
          ],
          "data": "0x00000000000000000000000000000000000000000000000029a2241af62c0000",
          "blockHash": "0x13d478824855158578d205ef8f1893bd1a86e5cf81e45d4067c5ab277c539d83",
          "blockNumber": "0x957de1",
          "blockTimestamp": "0x6936ff84",
          "transactionHash": "0xeb706393e1c2bc723593686ee27e6297d55c73dd172b31b9572331cd00219ab8",
          "transactionIndex": "0x5f",
          "logIndex": "0xa2",
          "removed": false
        },
        {
          "address": "0x779877a7b0d9e8603169ddbd7836e478b4624789",
          "topics": [
            "0xe19260aff97b920c7df27010903aeb9c8d2be5d310a2c67824cf3f15396e4c16",
            "0x00000000000000000000000052982b1af34a7823f17e407db831687298741593",
            "0x0000000000000000000000009ddfaca8183c41ad55329bdeed9f6a8d53168b1b"
          ],
          "data": "0x00000000000000000000000000000000000000000000000029a2241af62c0000000000000000000000000000000000000000000000000000000000000000004000000000000000000000000000000000000000000000000000000000000000203fcbd1ea72b4a8b917685f58004ef0e3a30a28d3bcf25275d8fe921d1b65eb16",
          "blockHash": "0x13d478824855158578d205ef8f1893bd1a86e5cf81e45d4067c5ab277c539d83",
          "blockNumber": "0x957de1",
          "blockTimestamp": "0x6936ff84",
          "transactionHash": "0xeb706393e1c2bc723593686ee27e6297d55c73dd172b31b9572331cd00219ab8",
          "transactionIndex": "0x5f",
          "logIndex": "0xa3",
          "removed": false
        },
        {
          "address": "0x9ddfaca8183c41ad55329bdeed9f6a8d53168b1b",
          "topics": [
            "0x1ced9348ff549fceab2ac57cd3a9de38edaaab274b725ee82c23e8fc8c4eec7a",
            "0x3fcbd1ea72b4a8b917685f58004ef0e3a30a28d3bcf25275d8fe921d1b65eb16"
          ],
          "data": "0x000000000000000000000000000000000000000000000000000000000000000000000000000000000000000000000000000000000000000029a2241af62c0000",
          "blockHash": "0x13d478824855158578d205ef8f1893bd1a86e5cf81e45d4067c5ab277c539d83",
          "blockNumber": "0x957de1",
          "blockTimestamp": "0x6936ff84",
          "transactionHash": "0xeb706393e1c2bc723593686ee27e6297d55c73dd172b31b9572331cd00219ab8",
          "transactionIndex": "0x5f",
          "logIndex": "0xa4",
          "removed": false
        }
      ],
      "logsBloom": "0x00000004000000000000000000000000000000000020000000000000020000000000000000000000000000000000000000000000000000020000000000000000000000000000000000000008000000000000000000000000000020000020000028000000000000000000000000000000000000000000000000000010000040000000000000000000000000010000800000000020000000000000000000000000000000000000000000000000010000000000000000002000000004000000000000000002000000000000000000000000000000000000000100010000000000000010000800000000800200000000000000000000000000000000000000000000",
      "type": "0x0",
      "transactionHash": "0xeb706393e1c2bc723593686ee27e6297d55c73dd172b31b9572331cd00219ab8",
      "transactionIndex": "0x5f",
      "blockHash": "0x13d478824855158578d205ef8f1893bd1a86e5cf81e45d4067c5ab277c539d83",
      "blockNumber": "0x957de1",
      "gasUsed": "0x133a5",
      "effectiveGasPrice": "0xf423f",
      "from": "0x52982b1af34a7823f17e407db831687298741593",
      "to": "0x779877a7b0d9e8603169ddbd7836e478b4624789",
      "contractAddress": null
    }
  ],
  "libraries": [],
  "pending": [],
  "returns": {},
  "timestamp": 1765212038276,
  "chain": 11155111,
  "commit": "a15b61e"
}